:100000000C9446000C945D000C945D000C945D0013
:100010000C945D000C945D000C945D000C945D00EC
:100020000C945D000C945D000C945D000C945D00DC
:100030000C945D000C945D000C945D000C945D00CC
:100040000C945D000C945D000C945D000C945D00BC
:100050000C945D000C945D000C945D000C945D00AC
:100060000C945D000C945D000C945D000C945D009C
:100070000C945D000C945D000C945D000C945D008C
:100080000C945D000C945D000C945D0011241FBE67
:10009000CFEFD0E4DEBFCDBF11E0A0E0B1E0E2E100
:1000A000F2E000E00BBF02C007900D92AE30B10746
:1000B000D9F70E9488000C9407010C940000CF939C
:1000C000DF9300D01F92CDB7DEB789837B836A832D
:1000D00089818A3031F48A819B81BC018DE00E9444
:1000E0005F0080EC90E0FC018081882F90E08072BE
:1000F00099270097B1F386EC90E02981FC012083D9
:1001000080E090E00F900F900F90DF91CF910895D5
:10011000CF93DF93CDB7DEB727970FB6F894DEBF46
:100120000FBECDBF81E290E0FC01108282E290E040
:100130002FEFFC01208384E290E0FC01108285E235
:1001400090E02FEFFC01208387E290E0FC01108219
:1001500088E290E02FEFFC0120838AE290E02FEF0D
:10016000FC0120838BE290E0FC01108219821A824C
:100170001B821C8299818A81980F8B81890F8F83C2
:100180008F818C8380E290E0FC018081898383E20F
:1001900090E0FC0180818A8386E290E0FC0180810E
:1001A0008B8399818B81891728F48B818D83898139
:1001B0008E8304C089818D838B818E838F818D385E
:1001C00020F08C8181608C8303C08C818E7F8C8336
:1001D0008E81282F30E08D81882F90E0A901481B67
:1001E000590BCA01813591054CF08C8182608C835A
:1001F0008BE290E02C81FC01208303C08C818D7FF9
:100200008C838BE290E02C81FC012083B3CFF894A7
:02021000FFCF1E
:0E02120000000002000000005F00000000007D
:00000001FF
